{
  "_format": "hh-sol-artifact-1",
  "contractName": "ArtistVerification",
  "sourceName": "contracts/ArtistVerification.sol",
  "abi": [
    {
      "inputs": [],
      "stateMutability": "nonpayable",
      "type": "constructor"
    },
    {
      "anonymous": false,
      "inputs": [
        {
          "indexed": true,
          "internalType": "address",
          "name": "artist",
          "type": "address"
        },
        {
          "indexed": false,
          "internalType": "string",
          "name": "ipfsHash",
          "type": "string"
        }
      ],
      "name": "ArtistProfileSubmitted",
      "type": "event"
    },
    {
      "anonymous": false,
      "inputs": [
        {
          "indexed": true,
          "internalType": "address",
          "name": "artist",
          "type": "address"
        }
      ],
      "name": "ArtistRejected",
      "type": "event"
    },
    {
      "anonymous": false,
      "inputs": [
        {
          "indexed": true,
          "internalType": "address",
          "name": "artist",
          "type": "address"
        }
      ],
      "name": "ArtistVerified",
      "type": "event"
    },
    {
      "inputs": [],
      "name": "admin",
      "outputs": [
        {
          "internalType": "address",
          "name": "",
          "type": "address"
        }
      ],
      "stateMutability": "view",
      "type": "function"
    },
    {
      "inputs": [
        {
          "internalType": "address",
          "name": "",
          "type": "address"
        }
      ],
      "name": "artists",
      "outputs": [
        {
          "internalType": "enum ArtistVerification.Status",
          "name": "status",
          "type": "uint8"
        },
        {
          "internalType": "string",
          "name": "ipfsHash",
          "type": "string"
        },
        {
          "internalType": "uint256",
          "name": "timestamp",
          "type": "uint256"
        },
        {
          "internalType": "bool",
          "name": "exists",
          "type": "bool"
        }
      ],
      "stateMutability": "view",
      "type": "function"
    },
    {
      "inputs": [
        {
          "internalType": "address",
          "name": "artist",
          "type": "address"
        }
      ],
      "name": "getArtistIPFSHash",
      "outputs": [
        {
          "internalType": "string",
          "name": "",
          "type": "string"
        }
      ],
      "stateMutability": "view",
      "type": "function"
    },
    {
      "inputs": [
        {
          "internalType": "address",
          "name": "artist",
          "type": "address"
        }
      ],
      "name": "getVerificationStatus",
      "outputs": [
        {
          "internalType": "enum ArtistVerification.Status",
          "name": "",
          "type": "uint8"
        },
        {
          "internalType": "uint256",
          "name": "",
          "type": "uint256"
        }
      ],
      "stateMutability": "view",
      "type": "function"
    },
    {
      "inputs": [],
      "name": "getVerifiedArtists",
      "outputs": [
        {
          "internalType": "address[]",
          "name": "",
          "type": "address[]"
        }
      ],
      "stateMutability": "view",
      "type": "function"
    },
    {
      "inputs": [
        {
          "internalType": "address",
          "name": "artist",
          "type": "address"
        }
      ],
      "name": "rejectArtist",
      "outputs": [],
      "stateMutability": "nonpayable",
      "type": "function"
    },
    {
      "inputs": [
        {
          "internalType": "string",
          "name": "ipfsHash",
          "type": "string"
        }
      ],
      "name": "submitArtistProfile",
      "outputs": [],
      "stateMutability": "nonpayable",
      "type": "function"
    },
    {
      "inputs": [
        {
          "internalType": "uint256",
          "name": "",
          "type": "uint256"
        }
      ],
      "name": "verifiedArtists",
      "outputs": [
        {
          "internalType": "address",
          "name": "",
          "type": "address"
        }
      ],
      "stateMutability": "view",
      "type": "function"
    },
    {
      "inputs": [
        {
          "internalType": "address",
          "name": "artist",
          "type": "address"
        }
      ],
      "name": "verifyArtist",
      "outputs": [],
      "stateMutability": "nonpayable",
      "type": "function"
    }
  ],
  "bytecode": "0x608060405234801561001057600080fd5b50336000806101000a81548173ffffffffffffffffffffffffffffffffffffffff021916908373ffffffffffffffffffffffffffffffffffffffff16021790555061181b806100606000396000f3fe608060405234801561001057600080fd5b50600436106100935760003560e01c806395da9ca01161006657806395da9ca014610134578063e61cd6f414610152578063eb7b303e1461016e578063f7267b131461019e578063f851a440146101ce57610093565b8063069dab8f146100985780634c7061b1146100cb5780636103681a146100e757806380c35fa514610118575b600080fd5b6100b260048036038101906100ad9190610de5565b6101ec565b6040516100c29493929190610f4d565b60405180910390f35b6100e560048036038101906100e09190610de5565b6102be565b005b61010160048036038101906100fc9190610de5565b6105a4565b60405161010f929190610f99565b60405180910390f35b610132600480360381019061012d91906110f7565b6106d2565b005b61013c61089c565b60405161014991906111fe565b60405180910390f35b61016c60048036038101906101679190610de5565b61092a565b005b61018860048036038101906101839190610de5565b610bad565b6040516101959190611220565b60405180910390f35b6101b860048036038101906101b3919061126e565b610d10565b6040516101c591906112aa565b60405180910390f35b6101d6610d4f565b6040516101e391906112aa565b60405180910390f35b60016020528060005260406000206000915090508060000160009054906101000a900460ff1690806001018054610222906112f4565b80601f016020809104026020016040519081016040528092919081815260200182805461024e906112f4565b801561029b5780601f106102705761010080835404028352916020019161029b565b820191906000526020600020905b81548152906001019060200180831161027e57829003601f168201915b5050505050908060020154908060030160009054906101000a900460ff16905084565b60008054906101000a900473ffffffffffffffffffffffffffffffffffffffff1673ffffffffffffffffffffffffffffffffffffffff163373ffffffffffffffffffffffffffffffffffffffff161461034c576040517f08c379a000000000000000000000000000000000000000000000000000000000815260040161034390611397565b60405180910390fd5b600160008273ffffffffffffffffffffffffffffffffffffffff1673ffffffffffffffffffffffffffffffffffffffff16815260200190815260200160002060030160009054906101000a900460ff166103db576040517f08c379a00000000000000000000000000000000000000000000000000000000081526004016103d290611403565b60405180910390fd5b600160028111156103ef576103ee610e12565b5b600160008373ffffffffffffffffffffffffffffffffffffffff1673ffffffffffffffffffffffffffffffffffffffff16815260200190815260200160002060000160009054906101000a900460ff16600281111561045157610450610e12565b5b03610491576040517f08c379a00000000000000000000000000000000000000000000000000000000081526004016104889061146f565b60405180910390fd5b60018060008373ffffffffffffffffffffffffffffffffffffffff1673ffffffffffffffffffffffffffffffffffffffff16815260200190815260200160002060000160006101000a81548160ff021916908360028111156104f6576104f5610e12565b5b02179055506002819080600181540180825580915050600190039060005260206000200160009091909190916101000a81548173ffffffffffffffffffffffffffffffffffffffff021916908373ffffffffffffffffffffffffffffffffffffffff1602179055508073ffffffffffffffffffffffffffffffffffffffff167fee6bea46cf54bec5f187edb810afd9edae51df8f3ce55aa9c6f330941d800a3d60405160405180910390a250565b600080600160008473ffffffffffffffffffffffffffffffffffffffff1673ffffffffffffffffffffffffffffffffffffffff16815260200190815260200160002060030160009054906101000a900460ff16610636576040517f08c379a000000000000000000000000000000000000000000000000000000000815260040161062d90611403565b60405180910390fd5b600160008473ffffffffffffffffffffffffffffffffffffffff1673ffffffffffffffffffffffffffffffffffffffff16815260200190815260200160002060000160009054906101000a900460ff16600160008573ffffffffffffffffffffffffffffffffffffffff1673ffffffffffffffffffffffffffffffffffffffff1681526020019081526020016000206002015491509150915091565b600160003373ffffffffffffffffffffffffffffffffffffffff1673ffffffffffffffffffffffffffffffffffffffff16815260200190815260200160002060030160009054906101000a900460ff1615610762576040517f08c379a0000000000000000000000000000000000000000000000000000000008152600401610759906114db565b60405180910390fd5b60405180608001604052806000600281111561078157610780610e12565b5b815260200182815260200142815260200160011515815250600160003373ffffffffffffffffffffffffffffffffffffffff1673ffffffffffffffffffffffffffffffffffffffff16815260200190815260200160002060008201518160000160006101000a81548160ff0219169083600281111561080357610802610e12565b5b0217905550602082015181600101908161081d91906116a7565b506040820151816002015560608201518160030160006101000a81548160ff0219169083151502179055509050503373ffffffffffffffffffffffffffffffffffffffff167f3fc295ad6c880ee5d8c01d245c42c3db4efbdcc371bb41b92f9e369086be6dfd826040516108919190611220565b60405180910390a250565b6060600280548060200260200160405190810160405280929190818152602001828054801561092057602002820191906000526020600020905b8160009054906101000a900473ffffffffffffffffffffffffffffffffffffffff1673ffffffffffffffffffffffffffffffffffffffff16815260200190600101908083116108d6575b5050505050905090565b60008054906101000a900473ffffffffffffffffffffffffffffffffffffffff1673ffffffffffffffffffffffffffffffffffffffff163373ffffffffffffffffffffffffffffffffffffffff16146109b8576040517f08c379a00000000000000000000000000000000000000000000000000000000081526004016109af90611397565b60405180910390fd5b600160008273ffffffffffffffffffffffffffffffffffffffff1673ffffffffffffffffffffffffffffffffffffffff16815260200190815260200160002060030160009054906101000a900460ff16610a47576040517f08c379a0000000000000000000000000000000000000000000000000000000008152600401610a3e90611403565b60405180910390fd5b600280811115610a5a57610a59610e12565b5b600160008373ffffffffffffffffffffffffffffffffffffffff1673ffffffffffffffffffffffffffffffffffffffff16815260200190815260200160002060000160009054906101000a900460ff166002811115610abc57610abb610e12565b5b03610afc576040517f08c379a0000000000000000000000000000000000000000000000000000000008152600401610af3906117c5565b60405180910390fd5b6002600160008373ffffffffffffffffffffffffffffffffffffffff1673ffffffffffffffffffffffffffffffffffffffff16815260200190815260200160002060000160006101000a81548160ff02191690836002811115610b6257610b61610e12565b5b02179055508073ffffffffffffffffffffffffffffffffffffffff167f1084a5f97ae8a79dd85fb9cab8763cb4f14e1d9958ecc5ee3304fdc1316934a360405160405180910390a250565b6060600160008373ffffffffffffffffffffffffffffffffffffffff1673ffffffffffffffffffffffffffffffffffffffff16815260200190815260200160002060030160009054906101000a900460ff16610c3e576040517f08c379a0000000000000000000000000000000000000000000000000000000008152600401610c3590611403565b60405180910390fd5b600160008373ffffffffffffffffffffffffffffffffffffffff1673ffffffffffffffffffffffffffffffffffffffff1681526020019081526020016000206001018054610c8b906112f4565b80601f0160208091040260200160405190810160405280929190818152602001828054610cb7906112f4565b8015610d045780601f10610cd957610100808354040283529160200191610d04565b820191906000526020600020905b815481529060010190602001808311610ce757829003601f168201915b50505050509050919050565b60028181548110610d2057600080fd5b906000526020600020016000915054906101000a900473ffffffffffffffffffffffffffffffffffffffff1681565b60008054906101000a900473ffffffffffffffffffffffffffffffffffffffff1681565b6000604051905090565b600080fd5b600080fd5b600073ffffffffffffffffffffffffffffffffffffffff82169050919050565b6000610db282610d87565b9050919050565b610dc281610da7565b8114610dcd57600080fd5b50565b600081359050610ddf81610db9565b92915050565b600060208284031215610dfb57610dfa610d7d565b5b6000610e0984828501610dd0565b91505092915050565b7f4e487b7100000000000000000000000000000000000000000000000000000000600052602160045260246000fd5b60038110610e5257610e51610e12565b5b50565b6000819050610e6382610e41565b919050565b6000610e7382610e55565b9050919050565b610e8381610e68565b82525050565b600081519050919050565b600082825260208201905092915050565b60005b83811015610ec3578082015181840152602081019050610ea8565b60008484015250505050565b6000601f19601f8301169050919050565b6000610eeb82610e89565b610ef58185610e94565b9350610f05818560208601610ea5565b610f0e81610ecf565b840191505092915050565b6000819050919050565b610f2c81610f19565b82525050565b60008115159050919050565b610f4781610f32565b82525050565b6000608082019050610f626000830187610e7a565b8181036020830152610f748186610ee0565b9050610f836040830185610f23565b610f906060830184610f3e565b95945050505050565b6000604082019050610fae6000830185610e7a565b610fbb6020830184610f23565b9392505050565b600080fd5b600080fd5b7f4e487b7100000000000000000000000000000000000000000000000000000000600052604160045260246000fd5b61100482610ecf565b810181811067ffffffffffffffff8211171561102357611022610fcc565b5b80604052505050565b6000611036610d73565b90506110428282610ffb565b919050565b600067ffffffffffffffff82111561106257611061610fcc565b5b61106b82610ecf565b9050602081019050919050565b82818337600083830152505050565b600061109a61109584611047565b61102c565b9050828152602081018484840111156110b6576110b5610fc7565b5b6110c1848285611078565b509392505050565b600082601f8301126110de576110dd610fc2565b5b81356110ee848260208601611087565b91505092915050565b60006020828403121561110d5761110c610d7d565b5b600082013567ffffffffffffffff81111561112b5761112a610d82565b5b611137848285016110c9565b91505092915050565b600081519050919050565b600082825260208201905092915050565b6000819050602082019050919050565b61117581610da7565b82525050565b6000611187838361116c565b60208301905092915050565b6000602082019050919050565b60006111ab82611140565b6111b5818561114b565b93506111c08361115c565b8060005b838110156111f15781516111d8888261117b565b97506111e383611193565b9250506001810190506111c4565b5085935050505092915050565b6000602082019050818103600083015261121881846111a0565b905092915050565b6000602082019050818103600083015261123a8184610ee0565b905092915050565b61124b81610f19565b811461125657600080fd5b50565b60008135905061126881611242565b92915050565b60006020828403121561128457611283610d7d565b5b600061129284828501611259565b91505092915050565b6112a481610da7565b82525050565b60006020820190506112bf600083018461129b565b92915050565b7f4e487b7100000000000000000000000000000000000000000000000000000000600052602260045260246000fd5b6000600282049050600182168061130c57607f821691505b60208210810361131f5761131e6112c5565b5b50919050565b7f4f6e6c792061646d696e2063616e20706572666f726d2074686973206163746960008201527f6f6e000000000000000000000000000000000000000000000000000000000000602082015250565b6000611381602283610e94565b915061138c82611325565b604082019050919050565b600060208201905081810360008301526113b081611374565b9050919050565b7f4172746973742070726f66696c6520646f6573206e6f74206578697374000000600082015250565b60006113ed601d83610e94565b91506113f8826113b7565b602082019050919050565b6000602082019050818103600083015261141c816113e0565b9050919050565b7f41727469737420616c7265616479207665726966696564000000000000000000600082015250565b6000611459601783610e94565b915061146482611423565b602082019050919050565b600060208201905081810360008301526114888161144c565b9050919050565b7f4172746973742070726f66696c6520616c726561647920657869737473000000600082015250565b60006114c5601d83610e94565b91506114d08261148f565b602082019050919050565b600060208201905081810360008301526114f4816114b8565b9050919050565b60008190508160005260206000209050919050565b60006020601f8301049050919050565b600082821b905092915050565b60006008830261155d7fffffffffffffffffffffffffffffffffffffffffffffffffffffffffffffffff82611520565b6115678683611520565b95508019841693508086168417925050509392505050565b6000819050919050565b60006115a461159f61159a84610f19565b61157f565b610f19565b9050919050565b6000819050919050565b6115be83611589565b6115d26115ca826115ab565b84845461152d565b825550505050565b600090565b6115e76115da565b6115f28184846115b5565b505050565b5b818110156116165761160b6000826115df565b6001810190506115f8565b5050565b601f82111561165b5761162c816114fb565b61163584611510565b81016020851015611644578190505b61165861165085611510565b8301826115f7565b50505b505050565b600082821c905092915050565b600061167e60001984600802611660565b1980831691505092915050565b6000611697838361166d565b9150826002028217905092915050565b6116b082610e89565b67ffffffffffffffff8111156116c9576116c8610fcc565b5b6116d382546112f4565b6116de82828561161a565b600060209050601f83116001811461171157600084156116ff578287015190505b611709858261168b565b865550611771565b601f19841661171f866114fb565b60005b8281101561174757848901518255600182019150602085019450602081019050611722565b868310156117645784890151611760601f89168261166d565b8355505b6001600288020188555050505b505050505050565b7f41727469737420616c72656164792072656a6563746564000000000000000000600082015250565b60006117af601783610e94565b91506117ba82611779565b602082019050919050565b600060208201905081810360008301526117de816117a2565b905091905056fea26469706673582212208b09410b811dbc0f3d8c605c38b33145be5ce1f64e4b5407c394ac101bea460964736f6c63430008180033",
  "linkReferences": {},
  "deployedLinkReferences": {}
}